:020000040000fa
:080000000002040000000000f2
:020000040000fa
:0400080002030000ef
:020000040000fa
:04000c0002030000eb
:020000040000fa
:0400100002030000e7
:020000040000fa
:0400140002030000e3
:020000040000fa
:0400180002030000df
:020000040000fa
:04001c0002030000db
:020000040000fa
:0400200002030000d7
:020000040000fa
:0400240002030000d3
:020000040000fa
:0400280002030000cf
:020000040000fa
:04002c0002030000cb
:020000040000fa
:0400300002030000c7
:020000040000fa
:0400340002030000c3
:020000040000fa
:0400380002030000bf
:020000040000fa
:04003c0002030000bb
:020000040000fa
:0400400002030000b7
:020000040000fa
:04004400f0020000c6
:020000040000fa
:0400480002030000af
:020000040000fa
:04004c0002030000ab
:020000040000fa
:0400500002030000a7
:020000040000fa
:0400540002030000a3
:020000040000fa
:04005800020300009f
:020000040000fa
:04005c00020300009b
:020000040000fa
:040060000203000097
:020000040000fa
:040064000203000093
:020000040000fa
:04006800020300008f
:020000040000fa
:04006c00020300008b
:020000040000fa
:040070000203000087
:020000040000fa
:04007400c8020000be
:020000040000fa
:04007800020300007f
:020000040000fa
:04007c00020300007b
:020000040000fa
:040080000203000077
:020000040000fa
:040084000203000073
:020000040000fa
:04008800020300006f
:020000040000fa
:04008c00020300006b
:020000040000fa
:040090000203000067
:020000040000fa
:040094000203000063
:020000040000fa
:04009800020300005f
:020000040000fa
:04009c00020300005b
:020000040000fa
:0400a0000203000057
:020000040000fa
:0400a4000203000053
:020000040000fa
:0400a800020300004f
:020000040000fa
:0400ac00020300004b
:020000040000fa
:0400b0000203000047
:020000040000fa
:0400b4000203000043
:020000040000fa
:0400b800020300003f
:020000040000fa
:0400bc00020300003b
:020000040000fa
:0400c0000203000037
:020000040000fa
:0400c4000203000033
:020000040000fa
:0400c800020300002f
:020000040000fa
:0400cc00020300002b
:020000040000fa
:0400d0000203000027
:020000040000fa
:0400d4000203000023
:020000040000fa
:0400d800020300001f
:020000040000fa
:0400dc00020300001b
:020000040000fa
:0400e0000203000017
:020000040000fa
:0400e4000203000013
:020000040000fa
:0400e800020300000f
:020000040000fa
:0400ec00020300000b
:020000040000fa
:0400f0000203000007
:020000040000fa
:0400f4000203000003
:020000040000fa
:0400f80002030000ff
:020000040000fa
:0400fc0002030000fb
:020000040000fa
:0401000002030000f6
:020000040000fa
:0401040002030000f2
:020000040000fa
:0401080002030000ee
:020000040000fa
:04010c0002030000ea
:020000040000fa
:0401100002030000e6
:020000040000fa
:0401140002030000e2
:020000040000fa
:0401180002030000de
:020000040000fa
:04011c0002030000da
:020000040000fa
:0401200002030000d6
:020000040000fa
:0401240002030000d2
:020000040000fa
:0401280002030000ce
:020000040000fa
:04012c0002030000ca
:020000040000fa
:0401300002030000c6
:020000040000fa
:0401340002030000c2
:020000040000fa
:0401380002030000be
:020000040000fa
:04013c0002030000ba
:020000040000fa
:0401400002030000b6
:020000040000fa
:0401440002030000b2
:020000040000fa
:0401480002030000ae
:020000040000fa
:04014c0002030000aa
:020000040000fa
:0401500002030000a6
:020000040000fa
:0401540002030000a2
:020000040000fa
:04015800020300009e
:020000040000fa
:04015c00020300009a
:020000040000fa
:0402080002030000ed
:020000040000fa
:04020c0002030000e9
:020000040000fa
:0402100002030000e5
:020000040000fa
:0402140002030000e1
:020000040000fa
:0402180002030000dd
:020000040000fa
:04021c0002030000d9
:020000040000fa
:0402200002030000d5
:020000040000fa
:0402240002030000d1
:020000040000fa
:0402280002030000cd
:020000040000fa
:04022c0002030000c9
:020000040000fa
:0402300002030000c5
:020000040000fa
:0402340002030000c1
:020000040000fa
:0402380002030000bd
:020000040000fa
:04023c0002030000b9
:020000040000fa
:0402400002030000b5
:020000040000fa
:04024400f0020000c4
:020000040000fa
:0402480002030000ad
:020000040000fa
:04024c0002030000a9
:020000040000fa
:0402500002030000a5
:020000040000fa
:0402540002030000a1
:020000040000fa
:04025800020300009d
:020000040000fa
:04025c000203000099
:020000040000fa
:040260000203000095
:020000040000fa
:040264000203000091
:020000040000fa
:04026800020300008d
:020000040000fa
:04026c000203000089
:020000040000fa
:040270000203000085
:020000040000fa
:04027400c8020000bc
:020000040000fa
:04027800020300007d
:020000040000fa
:04027c000203000079
:020000040000fa
:040280000203000075
:020000040000fa
:040284000203000071
:020000040000fa
:04028800020300006d
:020000040000fa
:04028c000203000069
:020000040000fa
:040290000203000065
:020000040000fa
:040294000203000061
:020000040000fa
:04029800020300005d
:020000040000fa
:04029c000203000059
:020000040000fa
:0402a0000203000055
:020000040000fa
:0402a4000203000051
:020000040000fa
:0402a800020300004d
:020000040000fa
:0402ac000203000049
:020000040000fa
:0402b0000203000045
:020000040000fa
:0402b4000203000041
:020000040000fa
:0402b800020300003d
:020000040000fa
:0402bc000203000039
:020000040000fa
:0402c0000203000035
:020000040000fa
:0402c4000203000031
:020000040000fa
:0402c800020300002d
:020000040000fa
:0402cc000203000029
:020000040000fa
:0402d0000203000025
:020000040000fa
:0402d4000203000021
:020000040000fa
:0402d800020300001d
:020000040000fa
:0402dc000203000019
:020000040000fa
:0402e0000203000015
:020000040000fa
:0402e4000203000011
:020000040000fa
:0402e800020300000d
:020000040000fa
:0402ec000203000009
:020000040000fa
:0402f0000203000005
:020000040000fa
:0402f4000203000001
:020000040000fa
:0402f80002030000fd
:020000040000fa
:0402fc0002030000f9
:020000040000fa
:0403000002030000f4
:020000040000fa
:0403040002030000f0
:020000040000fa
:0403080002030000ec
:020000040000fa
:04030c0002030000e8
:020000040000fa
:0403100002030000e4
:020000040000fa
:0403140002030000e0
:020000040000fa
:0403180002030000dc
:020000040000fa
:04031c0002030000d8
:020000040000fa
:0403200002030000d4
:020000040000fa
:0403240002030000d0
:020000040000fa
:0403280002030000cc
:020000040000fa
:04032c0002030000c8
:020000040000fa
:0403300002030000c4
:020000040000fa
:0403340002030000c0
:020000040000fa
:0403380002030000bc
:020000040000fa
:04033c0002030000b8
:020000040000fa
:0403400002030000b4
:020000040000fa
:0403440002030000b0
:020000040000fa
:0403480002030000ac
:020000040000fa
:04034c0002030000a8
:020000040000fa
:0403500002030000a4
:020000040000fa
:0403540002030000a0
:020000040000fa
:04035800020300009c
:020000040000fa
:04035c000203000098
:020000040000fa
:100400004f8020000edf20000e0188000000000059
:10041000000020000000e000020032000001200087
:100420002002880014000700780007000000e000a8
:1004300003003a00004b20000100200002003700ba
:100440000000200001002000810f70000100320038
:1004500014000700000020000000e000020032004d
:1004600000000200000000008c03020000000000f9
:100470000040da000000fe004440a9000000200017
:100480000000e0000300320000002000a00188000e
:100490004440a800000006008a1f78008b1f7800e7
:1004a0000000060091018800800478000000eb0045
:1004b0001a003700e284440032a0b4009905ba0063
:1004c000e284440032a0b4009906ba00e2844400f9
:1004d00032a0b4000006eb00476fde00fd07b2005b
:1004e000636ce10003003a00ebff07000000eb0043
:1004f0000a003700606ce10004003a00005deb0088
:100500008b05e900fdff3e00040037006168e10053
:10051000010032000086eb000b00070019c7ba008b
:100520001905ba000e04e00003003a000a00e000da
:10053000e0ff3a0000000600fe07b2009e018800be
:100540008a047800f5ff3700395dba008b05e900b1
:100550000c003200295dba008b05e900080032006a
:100560000c00e00003003a00e284440032a0b40032
:10057000f5ff370019ddba008b05e900faff3a00f4
:100580008904e800e184440032a0b40000000600c1
:100590003600f800809fbe00829fbe00849fbe0090
:1005a000869fbe000000fa003004800068006000f2
:1005b0000000e000020032003400070000e8b7004d
:1005c0008660a9000080fa004f03be004f02be0003
:1005d0004f01be004f00be003600f900004006008b
:1005e000801f78000000fa0084e0a90011e1a90052
:1005f00010c0b30002e8b7000080fa004f00780096
:10060000004006000040da000000fe000000050087
:020000040000fa
:100610000000fa00c9e2a9004fe7a8004fa7a9000f
:100620004f87a900713a8000f00f2f000080600012
:10063000703a88000080eb00601988006bc0a80049
:100640006820a8006800a800c042a800c882a800ce
:10065000c082a800c902a90063c0a8006020a80049
:100660006000a80061058000f0ff28008080600025
:100670000000260001007000600588008660a90067
:100680009660a8000080fa00000006000200fa0050
:100690000040eb00004f78001016800064006000fe
:1006a0000000e00001003a001e04a0005016800087
:1006b000700060000000e00001003a001e14a0007d
:1006c00010168000700060000000e00001003a0099
:1006d0001e24a0001e407800e34f500009003200a5
:1006e0001e407800e14f5000060032001e407800a6
:1006f000e24f5000030032001e407800e44f5000eb
:1007000002003a001e40780001003700f0c0b3003c
:100710000080fa00000006000000fa0050052000ea
:1007200038000700baff070001003700cd02a9001a
:1007300000c8bf00ef4f5000fcff32000800370038
:10074000cd02a80010002000010020006700070073
:10075000cd02a90010002000010020006300070066
:1007600000c8bf00e34f5000f5ff3200080037001b
:10077000cd02a800803e2000010020005b000700a1
:10078000cd02a900803e2000010020005700070094
:1007900000c8bf00e14f5000f5ff320008003700ed
:1007a000cd02a800007d2000010020004f000700be
:1007b000cd02a900007d2000010020004b000700b1
:1007c00000c8bf00e24f5000f5ff320008003700bc
:1007d000cd02a80080bb20000100200043000700dc
:1007e000cd02a90080bb2000010020003f000700cf
:1007f00000c8bf00e44f5000f5ff320000000000c9
:10080000cbff37000400fa00100798001e0090008c
:10081000e80f500003003a000040eb00004f780062
:10082000100037009e009000401f2000808f500075
:1008300003003a0060c6b300004f7800090037009b
:100840009e00900000022000808f500003003a00bc
:1008500050c5b300004f78000200370050c5b30008
:10086000004f780011028000000e2000010070008f
:1008700010028800213a8000f08f2f000080600075
:10088000203a88001e01fb0080072000a1092000fb
:1008900033742000804978008149780082497800cb
:1008a0001200200060042000710520002374200045
:1008b0008049780081497800824978004207a80081
:1008c00000000000103a8000610060000000e000bd
:1008d000fcff3a0011028000f0f12f000080600060
:1008e000100288000080fa00000006000400fa00f0
:1008f000008fbe000268ef001061a900810880002f
:10090000f0fc2f0000806000800888001021a90002
:1009100011a1a90031058000f0ff280000806000cf
:1009200000d0a0003005880084e0a90094e0a80071
:100930001e0078004400dd00600888000621ef00fa
:1009400011e1a800010037000140fe0002c8bf000d
:10095000e14f5000fcff3a000080fa000000060062
:020000040000fa
:100960000008000002000000000000000208000073
:0c09700002000000000000000000000079
:020000040000fa
:0200000401f009
:04000000ffffff00ff
:020000040000fa
:0200000401f009
:04000800ffffff00f7
:020000040000fa
:0200000401f009
:04000c0000000000f0
:020000040000fa
:0200000401f009
:040010005300000099
:020000040000fa
:0200000401f009
:0400140040000000a8
:020000040000fa
:0200000401f009
:0400180010000000d4
:020000040000fa
:0200000401f009
:04001c00c20000001e
:020000040000fa
:0200000401f009
:0400200017000000c5
:00000001FF
